{
	"monandcommunity.sol": {
		"WelcomeCommunity": {
			"abi": [
				{
					"anonymous": false,
					"inputs": [
						{
							"indexed": true,
							"internalType": "address",
							"name": "user",
							"type": "address"
						},
						{
							"indexed": false,
							"internalType": "uint256",
							"name": "count",
							"type": "uint256"
						}
					],
					"name": "Interaction",
					"type": "event"
				},
				{
					"inputs": [],
					"name": "checkHistory",
					"outputs": [
						{
							"internalType": "string",
							"name": "",
							"type": "string"
						}
					],
					"stateMutability": "view",
					"type": "function"
				},
				{
					"inputs": [
						{
							"internalType": "address",
							"name": "",
							"type": "address"
						}
					],
					"name": "interactions",
					"outputs": [
						{
							"internalType": "uint256",
							"name": "",
							"type": "uint256"
						}
					],
					"stateMutability": "view",
					"type": "function"
				},
				{
					"inputs": [],
					"name": "welcome",
					"outputs": [
						{
							"internalType": "string",
							"name": "",
							"type": "string"
						}
					],
					"stateMutability": "nonpayable",
					"type": "function"
				}
			],
			"devdoc": {
				"kind": "dev",
				"methods": {},
				"version": 1
			},
			"evm": {
				"assembly": "    /* \"monandcommunity.sol\":61:1722  contract WelcomeCommunity {... */\n  mstore(0x40, 0x80)\n  callvalue\n  dup1\n  iszero\n  tag_1\n  jumpi\n  revert(0x00, 0x00)\ntag_1:\n  pop\n  dataSize(sub_0)\n  dup1\n  dataOffset(sub_0)\n  0x00\n  codecopy\n  0x00\n  return\nstop\n\nsub_0: assembly {\n        /* \"monandcommunity.sol\":61:1722  contract WelcomeCommunity {... */\n      mstore(0x40, 0x80)\n      callvalue\n      dup1\n      iszero\n      tag_1\n      jumpi\n      revert(0x00, 0x00)\n    tag_1:\n      pop\n      jumpi(tag_2, lt(calldatasize, 0x04))\n      shr(0xe0, calldataload(0x00))\n      dup1\n      0x08a6f252\n      eq\n      tag_3\n      jumpi\n      dup1\n      0x79ab8f1f\n      eq\n      tag_4\n      jumpi\n      dup1\n      0xb627cf3b\n      eq\n      tag_5\n      jumpi\n    tag_2:\n      revert(0x00, 0x00)\n        /* \"monandcommunity.sol\":100:147  mapping(address => uint256) public interactions */\n    tag_3:\n      tag_6\n      0x04\n      dup1\n      calldatasize\n      sub\n      dup2\n      add\n      swap1\n      tag_7\n      swap2\n      swap1\n      tag_8\n      jump\t// in\n    tag_7:\n      tag_9\n      jump\t// in\n    tag_6:\n      mload(0x40)\n      tag_10\n      swap2\n      swap1\n      tag_11\n      jump\t// in\n    tag_10:\n      mload(0x40)\n      dup1\n      swap2\n      sub\n      swap1\n      return\n        /* \"monandcommunity.sol\":573:1230  function checkHistory() public view returns (string memory) {... */\n    tag_4:\n      tag_12\n      tag_13\n      jump\t// in\n    tag_12:\n      mload(0x40)\n      tag_14\n      swap2\n      swap1\n      tag_15\n      jump\t// in\n    tag_14:\n      mload(0x40)\n      dup1\n      swap2\n      sub\n      swap1\n      return\n        /* \"monandcommunity.sol\":380:506  function welcome() public trackInteraction returns (string memory) {... */\n    tag_5:\n      tag_16\n      tag_17\n      jump\t// in\n    tag_16:\n      mload(0x40)\n      tag_18\n      swap2\n      swap1\n      tag_15\n      jump\t// in\n    tag_18:\n      mload(0x40)\n      dup1\n      swap2\n      sub\n      swap1\n      return\n        /* \"monandcommunity.sol\":100:147  mapping(address => uint256) public interactions */\n    tag_9:\n      mstore(0x20, 0x00)\n      dup1\n      0x00\n      mstore\n      keccak256(0x00, 0x40)\n      0x00\n      swap2\n      pop\n      swap1\n      pop\n      sload\n      dup2\n      jump\t// out\n        /* \"monandcommunity.sol\":573:1230  function checkHistory() public view returns (string memory) {... */\n    tag_13:\n        /* \"monandcommunity.sol\":618:631  string memory */\n      0x60\n        /* \"monandcommunity.sol\":644:657  uint256 count */\n      0x00\n        /* \"monandcommunity.sol\":660:672  interactions */\n      0x00\n        /* \"monandcommunity.sol\":660:684  interactions[msg.sender] */\n      0x00\n        /* \"monandcommunity.sol\":673:683  msg.sender */\n      caller\n        /* \"monandcommunity.sol\":660:684  interactions[msg.sender] */\n      0xffffffffffffffffffffffffffffffffffffffff\n      and\n      0xffffffffffffffffffffffffffffffffffffffff\n      and\n      dup2\n      mstore\n      0x20\n      add\n      swap1\n      dup2\n      mstore\n      0x20\n      add\n      0x00\n      keccak256\n      sload\n        /* \"monandcommunity.sol\":644:684  uint256 count = interactions[msg.sender] */\n      swap1\n      pop\n        /* \"monandcommunity.sol\":709:712  100 */\n      0x64\n        /* \"monandcommunity.sol\":701:706  count */\n      dup2\n        /* \"monandcommunity.sol\":701:712  count > 100 */\n      gt\n        /* \"monandcommunity.sol\":697:1223  if (count > 100) {... */\n      iszero\n      tag_20\n      jumpi\n        /* \"monandcommunity.sol\":845:864  uintToString(count) */\n      tag_21\n        /* \"monandcommunity.sol\":858:863  count */\n      dup2\n        /* \"monandcommunity.sol\":845:857  uintToString */\n      tag_22\n        /* \"monandcommunity.sol\":845:864  uintToString(count) */\n      jump\t// in\n    tag_21:\n        /* \"monandcommunity.sol\":761:950  abi.encodePacked(... */\n      add(0x20, mload(0x40))\n      tag_23\n      swap2\n      swap1\n      tag_24\n      jump\t// in\n    tag_23:\n      mload(0x40)\n      0x20\n      dup2\n      dup4\n      sub\n      sub\n      dup2\n      mstore\n      swap1\n      0x40\n      mstore\n        /* \"monandcommunity.sol\":729:965  return string(... */\n      swap2\n      pop\n      pop\n      jump(tag_19)\n        /* \"monandcommunity.sol\":697:1223  if (count > 100) {... */\n    tag_20:\n        /* \"monandcommunity.sol\":1114:1133  uintToString(count) */\n      tag_26\n        /* \"monandcommunity.sol\":1127:1132  count */\n      dup2\n        /* \"monandcommunity.sol\":1114:1126  uintToString */\n      tag_22\n        /* \"monandcommunity.sol\":1114:1133  uintToString(count) */\n      jump\t// in\n    tag_26:\n        /* \"monandcommunity.sol\":1030:1196  abi.encodePacked(... */\n      add(0x20, mload(0x40))\n      tag_27\n      swap2\n      swap1\n      tag_28\n      jump\t// in\n    tag_27:\n      mload(0x40)\n      0x20\n      dup2\n      dup4\n      sub\n      sub\n      dup2\n      mstore\n      swap1\n      0x40\n      mstore\n        /* \"monandcommunity.sol\":998:1211  return string(... */\n      swap2\n      pop\n      pop\n        /* \"monandcommunity.sol\":573:1230  function checkHistory() public view returns (string memory) {... */\n    tag_19:\n      swap1\n      jump\t// out\n        /* \"monandcommunity.sol\":380:506  function welcome() public trackInteraction returns (string memory) {... */\n    tag_17:\n        /* \"monandcommunity.sol\":432:445  string memory */\n      0x60\n        /* \"monandcommunity.sol\":286:287  1 */\n      0x01\n        /* \"monandcommunity.sol\":258:270  interactions */\n      0x00\n        /* \"monandcommunity.sol\":258:282  interactions[msg.sender] */\n      0x00\n        /* \"monandcommunity.sol\":271:281  msg.sender */\n      caller\n        /* \"monandcommunity.sol\":258:282  interactions[msg.sender] */\n      0xffffffffffffffffffffffffffffffffffffffff\n      and\n      0xffffffffffffffffffffffffffffffffffffffff\n      and\n      dup2\n      mstore\n      0x20\n      add\n      swap1\n      dup2\n      mstore\n      0x20\n      add\n      0x00\n      keccak256\n      0x00\n        /* \"monandcommunity.sol\":258:287  interactions[msg.sender] += 1 */\n      dup3\n      dup3\n      sload\n      tag_30\n      swap2\n      swap1\n      tag_31\n      jump\t// in\n    tag_30:\n      swap3\n      pop\n      pop\n      dup2\n      swap1\n      sstore\n      pop\n        /* \"monandcommunity.sol\":315:325  msg.sender */\n      caller\n        /* \"monandcommunity.sol\":303:352  Interaction(msg.sender, interactions[msg.sender]) */\n      0xffffffffffffffffffffffffffffffffffffffff\n      and\n      0xf12489dc722d1cccd7b674152f04c8cce3e81ceb99919ed914fc0a318923c2c4\n        /* \"monandcommunity.sol\":327:339  interactions */\n      0x00\n        /* \"monandcommunity.sol\":327:351  interactions[msg.sender] */\n      0x00\n        /* \"monandcommunity.sol\":340:350  msg.sender */\n      caller\n        /* \"monandcommunity.sol\":327:351  interactions[msg.sender] */\n      0xffffffffffffffffffffffffffffffffffffffff\n      and\n      0xffffffffffffffffffffffffffffffffffffffff\n      and\n      dup2\n      mstore\n      0x20\n      add\n      swap1\n      dup2\n      mstore\n      0x20\n      add\n      0x00\n      keccak256\n      sload\n        /* \"monandcommunity.sol\":303:352  Interaction(msg.sender, interactions[msg.sender]) */\n      mload(0x40)\n      tag_32\n      swap2\n      swap1\n      tag_11\n      jump\t// in\n    tag_32:\n      mload(0x40)\n      dup1\n      swap2\n      sub\n      swap1\n      log2\n        /* \"monandcommunity.sol\":458:498  return \"Welcome to the Monad Community!\" */\n      mload(0x40)\n      dup1\n      0x40\n      add\n      0x40\n      mstore\n      dup1\n      0x1f\n      dup2\n      mstore\n      0x20\n      add\n      0x57656c636f6d6520746f20746865204d6f6e616420436f6d6d756e6974792100\n      dup2\n      mstore\n      pop\n      swap1\n      pop\n        /* \"monandcommunity.sol\":380:506  function welcome() public trackInteraction returns (string memory) {... */\n      swap1\n      jump\t// out\n        /* \"monandcommunity.sol\":1238:1719  function uintToString(uint256 v) internal pure returns (string memory str) {... */\n    tag_22:\n        /* \"monandcommunity.sol\":1294:1311  string memory str */\n      0x60\n        /* \"monandcommunity.sol\":1333:1334  0 */\n      0x00\n        /* \"monandcommunity.sol\":1328:1329  v */\n      dup3\n        /* \"monandcommunity.sol\":1328:1334  v == 0 */\n      sub\n        /* \"monandcommunity.sol\":1324:1346  if (v == 0) return \"0\" */\n      tag_35\n      jumpi\n        /* \"monandcommunity.sol\":1336:1346  return \"0\" */\n      mload(0x40)\n      dup1\n      0x40\n      add\n      0x40\n      mstore\n      dup1\n      0x01\n      dup2\n      mstore\n      0x20\n      add\n      0x3000000000000000000000000000000000000000000000000000000000000000\n      dup2\n      mstore\n      pop\n      swap1\n      pop\n      jump(tag_34)\n        /* \"monandcommunity.sol\":1324:1346  if (v == 0) return \"0\" */\n    tag_35:\n        /* \"monandcommunity.sol\":1357:1366  uint256 j */\n      0x00\n        /* \"monandcommunity.sol\":1369:1370  v */\n      dup3\n        /* \"monandcommunity.sol\":1357:1370  uint256 j = v */\n      swap1\n      pop\n        /* \"monandcommunity.sol\":1381:1395  uint256 length */\n      0x00\n        /* \"monandcommunity.sol\":1406:1478  while (j != 0) {... */\n    tag_36:\n        /* \"monandcommunity.sol\":1418:1419  0 */\n      0x00\n        /* \"monandcommunity.sol\":1413:1414  j */\n      dup3\n        /* \"monandcommunity.sol\":1413:1419  j != 0 */\n      eq\n        /* \"monandcommunity.sol\":1406:1478  while (j != 0) {... */\n      tag_37\n      jumpi\n        /* \"monandcommunity.sol\":1436:1444  length++ */\n      dup1\n      dup1\n      tag_38\n      swap1\n      tag_39\n      jump\t// in\n    tag_38:\n      swap2\n      pop\n      pop\n        /* \"monandcommunity.sol\":1464:1466  10 */\n      0x0a\n        /* \"monandcommunity.sol\":1459:1466  j /= 10 */\n      dup3\n      tag_40\n      swap2\n      swap1\n      tag_41\n      jump\t// in\n    tag_40:\n      swap2\n      pop\n        /* \"monandcommunity.sol\":1406:1478  while (j != 0) {... */\n      jump(tag_36)\n    tag_37:\n        /* \"monandcommunity.sol\":1488:1505  bytes memory bstr */\n      0x00\n        /* \"monandcommunity.sol\":1518:1524  length */\n      dup2\n        /* \"monandcommunity.sol\":1508:1525  new bytes(length) */\n      0xffffffffffffffff\n      dup2\n      gt\n      iszero\n      tag_42\n      jumpi\n      tag_43\n      tag_44\n      jump\t// in\n    tag_43:\n    tag_42:\n      mload(0x40)\n      swap1\n      dup1\n      dup3\n      mstore\n      dup1\n      0x1f\n      add\n      not(0x1f)\n      and\n      0x20\n      add\n      dup3\n      add\n      0x40\n      mstore\n      dup1\n      iszero\n      tag_45\n      jumpi\n      dup2\n      0x20\n      add\n      0x01\n      dup3\n      mul\n      dup1\n      calldatasize\n      dup4\n      calldatacopy\n      dup1\n      dup3\n      add\n      swap2\n      pop\n      pop\n      swap1\n      pop\n    tag_45:\n      pop\n        /* \"monandcommunity.sol\":1488:1525  bytes memory bstr = new bytes(length) */\n      swap1\n      pop\n        /* \"monandcommunity.sol\":1536:1545  uint256 k */\n      0x00\n        /* \"monandcommunity.sol\":1548:1554  length */\n      dup3\n        /* \"monandcommunity.sol\":1536:1554  uint256 k = length */\n      swap1\n      pop\n        /* \"monandcommunity.sol\":1569:1570  v */\n      dup6\n        /* \"monandcommunity.sol\":1565:1570  j = v */\n      swap4\n      pop\n        /* \"monandcommunity.sol\":1581:1683  while (j != 0) {... */\n    tag_46:\n        /* \"monandcommunity.sol\":1593:1594  0 */\n      0x00\n        /* \"monandcommunity.sol\":1588:1589  j */\n      dup5\n        /* \"monandcommunity.sol\":1588:1594  j != 0 */\n      eq\n        /* \"monandcommunity.sol\":1581:1683  while (j != 0) {... */\n      tag_47\n      jumpi\n        /* \"monandcommunity.sol\":1645:1647  10 */\n      0x0a\n        /* \"monandcommunity.sol\":1641:1642  j */\n      dup5\n        /* \"monandcommunity.sol\":1641:1647  j % 10 */\n      tag_48\n      swap2\n      swap1\n      tag_49\n      jump\t// in\n    tag_48:\n        /* \"monandcommunity.sol\":1636:1638  48 */\n      0x30\n        /* \"monandcommunity.sol\":1636:1647  48 + j % 10 */\n      tag_50\n      swap2\n      swap1\n      tag_31\n      jump\t// in\n    tag_50:\n        /* \"monandcommunity.sol\":1623:1649  bytes1(uint8(48 + j % 10)) */\n      0xf8\n      shl\n        /* \"monandcommunity.sol\":1611:1615  bstr */\n      dup3\n        /* \"monandcommunity.sol\":1616:1619  --k */\n      dup3\n      tag_51\n      swap1\n      tag_52\n      jump\t// in\n    tag_51:\n      swap3\n      pop\n      dup3\n        /* \"monandcommunity.sol\":1611:1620  bstr[--k] */\n      dup2\n      mload\n      dup2\n      lt\n      tag_53\n      jumpi\n      tag_54\n      tag_55\n      jump\t// in\n    tag_54:\n    tag_53:\n      0x20\n      add\n      add\n        /* \"monandcommunity.sol\":1611:1649  bstr[--k] = bytes1(uint8(48 + j % 10)) */\n      swap1\n      not(0xffffffffffffffffffffffffffffffffffffffffffffffffffffffffffffff)\n      and\n      swap1\n      dup2\n      0x00\n      byte\n      swap1\n      mstore8\n      pop\n        /* \"monandcommunity.sol\":1669:1671  10 */\n      0x0a\n        /* \"monandcommunity.sol\":1664:1671  j /= 10 */\n      dup5\n      tag_56\n      swap2\n      swap1\n      tag_41\n      jump\t// in\n    tag_56:\n      swap4\n      pop\n        /* \"monandcommunity.sol\":1581:1683  while (j != 0) {... */\n      jump(tag_46)\n    tag_47:\n        /* \"monandcommunity.sol\":1706:1710  bstr */\n      dup2\n        /* \"monandcommunity.sol\":1693:1711  str = string(bstr) */\n      swap5\n      pop\n        /* \"monandcommunity.sol\":1313:1719  {... */\n      pop\n      pop\n      pop\n      pop\n        /* \"monandcommunity.sol\":1238:1719  function uintToString(uint256 v) internal pure returns (string memory str) {... */\n    tag_34:\n      swap2\n      swap1\n      pop\n      jump\t// out\n        /* \"#utility.yul\":88:205   */\n    tag_58:\n        /* \"#utility.yul\":197:198   */\n      0x00\n        /* \"#utility.yul\":194:195   */\n      0x00\n        /* \"#utility.yul\":187:199   */\n      revert\n        /* \"#utility.yul\":334:460   */\n    tag_60:\n        /* \"#utility.yul\":371:378   */\n      0x00\n        /* \"#utility.yul\":411:453   */\n      0xffffffffffffffffffffffffffffffffffffffff\n        /* \"#utility.yul\":404:409   */\n      dup3\n        /* \"#utility.yul\":400:454   */\n      and\n        /* \"#utility.yul\":389:454   */\n      swap1\n      pop\n        /* \"#utility.yul\":334:460   */\n      swap2\n      swap1\n      pop\n      jump\t// out\n        /* \"#utility.yul\":466:562   */\n    tag_61:\n        /* \"#utility.yul\":503:510   */\n      0x00\n        /* \"#utility.yul\":532:556   */\n      tag_87\n        /* \"#utility.yul\":550:555   */\n      dup3\n        /* \"#utility.yul\":532:556   */\n      tag_60\n      jump\t// in\n    tag_87:\n        /* \"#utility.yul\":521:556   */\n      swap1\n      pop\n        /* \"#utility.yul\":466:562   */\n      swap2\n      swap1\n      pop\n      jump\t// out\n        /* \"#utility.yul\":568:690   */\n    tag_62:\n        /* \"#utility.yul\":641:665   */\n      tag_89\n        /* \"#utility.yul\":659:664   */\n      dup2\n        /* \"#utility.yul\":641:665   */\n      tag_61\n      jump\t// in\n    tag_89:\n        /* \"#utility.yul\":634:639   */\n      dup2\n        /* \"#utility.yul\":631:666   */\n      eq\n        /* \"#utility.yul\":621:684   */\n      tag_90\n      jumpi\n        /* \"#utility.yul\":680:681   */\n      0x00\n        /* \"#utility.yul\":677:678   */\n      0x00\n        /* \"#utility.yul\":670:682   */\n      revert\n        /* \"#utility.yul\":621:684   */\n    tag_90:\n        /* \"#utility.yul\":568:690   */\n      pop\n      jump\t// out\n        /* \"#utility.yul\":696:835   */\n    tag_63:\n        /* \"#utility.yul\":742:747   */\n      0x00\n        /* \"#utility.yul\":780:786   */\n      dup2\n        /* \"#utility.yul\":767:787   */\n      calldataload\n        /* \"#utility.yul\":758:787   */\n      swap1\n      pop\n        /* \"#utility.yul\":796:829   */\n      tag_92\n        /* \"#utility.yul\":823:828   */\n      dup2\n        /* \"#utility.yul\":796:829   */\n      tag_62\n      jump\t// in\n    tag_92:\n        /* \"#utility.yul\":696:835   */\n      swap3\n      swap2\n      pop\n      pop\n      jump\t// out\n        /* \"#utility.yul\":841:1170   */\n    tag_8:\n        /* \"#utility.yul\":900:906   */\n      0x00\n        /* \"#utility.yul\":949:951   */\n      0x20\n        /* \"#utility.yul\":937:946   */\n      dup3\n        /* \"#utility.yul\":928:935   */\n      dup5\n        /* \"#utility.yul\":924:947   */\n      sub\n        /* \"#utility.yul\":920:952   */\n      slt\n        /* \"#utility.yul\":917:1036   */\n      iszero\n      tag_94\n      jumpi\n        /* \"#utility.yul\":955:1034   */\n      tag_95\n      tag_58\n      jump\t// in\n    tag_95:\n        /* \"#utility.yul\":917:1036   */\n    tag_94:\n        /* \"#utility.yul\":1075:1076   */\n      0x00\n        /* \"#utility.yul\":1100:1153   */\n      tag_96\n        /* \"#utility.yul\":1145:1152   */\n      dup5\n        /* \"#utility.yul\":1136:1142   */\n      dup3\n        /* \"#utility.yul\":1125:1134   */\n      dup6\n        /* \"#utility.yul\":1121:1143   */\n      add\n        /* \"#utility.yul\":1100:1153   */\n      tag_63\n      jump\t// in\n    tag_96:\n        /* \"#utility.yul\":1090:1153   */\n      swap2\n      pop\n        /* \"#utility.yul\":1046:1163   */\n      pop\n        /* \"#utility.yul\":841:1170   */\n      swap3\n      swap2\n      pop\n      pop\n      jump\t// out\n        /* \"#utility.yul\":1176:1253   */\n    tag_64:\n        /* \"#utility.yul\":1213:1220   */\n      0x00\n        /* \"#utility.yul\":1242:1247   */\n      dup2\n        /* \"#utility.yul\":1231:1247   */\n      swap1\n      pop\n        /* \"#utility.yul\":1176:1253   */\n      swap2\n      swap1\n      pop\n      jump\t// out\n        /* \"#utility.yul\":1259:1377   */\n    tag_65:\n        /* \"#utility.yul\":1346:1370   */\n      tag_99\n        /* \"#utility.yul\":1364:1369   */\n      dup2\n        /* \"#utility.yul\":1346:1370   */\n      tag_64\n      jump\t// in\n    tag_99:\n        /* \"#utility.yul\":1341:1344   */\n      dup3\n        /* \"#utility.yul\":1334:1371   */\n      mstore\n        /* \"#utility.yul\":1259:1377   */\n      pop\n      pop\n      jump\t// out\n        /* \"#utility.yul\":1383:1605   */\n    tag_11:\n        /* \"#utility.yul\":1476:1480   */\n      0x00\n        /* \"#utility.yul\":1514:1516   */\n      0x20\n        /* \"#utility.yul\":1503:1512   */\n      dup3\n        /* \"#utility.yul\":1499:1517   */\n      add\n        /* \"#utility.yul\":1491:1517   */\n      swap1\n      pop\n        /* \"#utility.yul\":1527:1598   */\n      tag_101\n        /* \"#utility.yul\":1595:1596   */\n      0x00\n        /* \"#utility.yul\":1584:1593   */\n      dup4\n        /* \"#utility.yul\":1580:1597   */\n      add\n        /* \"#utility.yul\":1571:1577   */\n      dup5\n        /* \"#utility.yul\":1527:1598   */\n      tag_65\n      jump\t// in\n    tag_101:\n        /* \"#utility.yul\":1383:1605   */\n      swap3\n      swap2\n      pop\n      pop\n      jump\t// out\n        /* \"#utility.yul\":1611:1710   */\n    tag_66:\n        /* \"#utility.yul\":1663:1669   */\n      0x00\n        /* \"#utility.yul\":1697:1702   */\n      dup2\n        /* \"#utility.yul\":1691:1703   */\n      mload\n        /* \"#utility.yul\":1681:1703   */\n      swap1\n      pop\n        /* \"#utility.yul\":1611:1710   */\n      swap2\n      swap1\n      pop\n      jump\t// out\n        /* \"#utility.yul\":1716:1885   */\n    tag_67:\n        /* \"#utility.yul\":1800:1811   */\n      0x00\n        /* \"#utility.yul\":1834:1840   */\n      dup3\n        /* \"#utility.yul\":1829:1832   */\n      dup3\n        /* \"#utility.yul\":1822:1841   */\n      mstore\n        /* \"#utility.yul\":1874:1878   */\n      0x20\n        /* \"#utility.yul\":1869:1872   */\n      dup3\n        /* \"#utility.yul\":1865:1879   */\n      add\n        /* \"#utility.yul\":1850:1879   */\n      swap1\n      pop\n        /* \"#utility.yul\":1716:1885   */\n      swap3\n      swap2\n      pop\n      pop\n      jump\t// out\n        /* \"#utility.yul\":1891:2030   */\n    tag_68:\n        /* \"#utility.yul\":1980:1986   */\n      dup3\n        /* \"#utility.yul\":1975:1978   */\n      dup2\n        /* \"#utility.yul\":1970:1973   */\n      dup4\n        /* \"#utility.yul\":1964:1987   */\n      mcopy\n        /* \"#utility.yul\":2021:2022   */\n      0x00\n        /* \"#utility.yul\":2012:2018   */\n      dup4\n        /* \"#utility.yul\":2007:2010   */\n      dup4\n        /* \"#utility.yul\":2003:2019   */\n      add\n        /* \"#utility.yul\":1996:2023   */\n      mstore\n        /* \"#utility.yul\":1891:2030   */\n      pop\n      pop\n      pop\n      jump\t// out\n        /* \"#utility.yul\":2036:2138   */\n    tag_69:\n        /* \"#utility.yul\":2077:2083   */\n      0x00\n        /* \"#utility.yul\":2128:2130   */\n      0x1f\n        /* \"#utility.yul\":2124:2131   */\n      not\n        /* \"#utility.yul\":2119:2121   */\n      0x1f\n        /* \"#utility.yul\":2112:2117   */\n      dup4\n        /* \"#utility.yul\":2108:2122   */\n      add\n        /* \"#utility.yul\":2104:2132   */\n      and\n        /* \"#utility.yul\":2094:2132   */\n      swap1\n      pop\n        /* \"#utility.yul\":2036:2138   */\n      swap2\n      swap1\n      pop\n      jump\t// out\n        /* \"#utility.yul\":2144:2521   */\n    tag_70:\n        /* \"#utility.yul\":2232:2235   */\n      0x00\n        /* \"#utility.yul\":2260:2299   */\n      tag_107\n        /* \"#utility.yul\":2293:2298   */\n      dup3\n        /* \"#utility.yul\":2260:2299   */\n      tag_66\n      jump\t// in\n    tag_107:\n        /* \"#utility.yul\":2315:2386   */\n      tag_108\n        /* \"#utility.yul\":2379:2385   */\n      dup2\n        /* \"#utility.yul\":2374:2377   */\n      dup6\n        /* \"#utility.yul\":2315:2386   */\n      tag_67\n      jump\t// in\n    tag_108:\n        /* \"#utility.yul\":2308:2386   */\n      swap4\n      pop\n        /* \"#utility.yul\":2395:2460   */\n      tag_109\n        /* \"#utility.yul\":2453:2459   */\n      dup2\n        /* \"#utility.yul\":2448:2451   */\n      dup6\n        /* \"#utility.yul\":2441:2445   */\n      0x20\n        /* \"#utility.yul\":2434:2439   */\n      dup7\n        /* \"#utility.yul\":2430:2446   */\n      add\n        /* \"#utility.yul\":2395:2460   */\n      tag_68\n      jump\t// in\n    tag_109:\n        /* \"#utility.yul\":2485:2514   */\n      tag_110\n        /* \"#utility.yul\":2507:2513   */\n      dup2\n        /* \"#utility.yul\":2485:2514   */\n      tag_69\n      jump\t// in\n    tag_110:\n        /* \"#utility.yul\":2480:2483   */\n      dup5\n        /* \"#utility.yul\":2476:2515   */\n      add\n        /* \"#utility.yul\":2469:2515   */\n      swap2\n      pop\n        /* \"#utility.yul\":2236:2521   */\n      pop\n        /* \"#utility.yul\":2144:2521   */\n      swap3\n      swap2\n      pop\n      pop\n      jump\t// out\n        /* \"#utility.yul\":2527:2840   */\n    tag_15:\n        /* \"#utility.yul\":2640:2644   */\n      0x00\n        /* \"#utility.yul\":2678:2680   */\n      0x20\n        /* \"#utility.yul\":2667:2676   */\n      dup3\n        /* \"#utility.yul\":2663:2681   */\n      add\n        /* \"#utility.yul\":2655:2681   */\n      swap1\n      pop\n        /* \"#utility.yul\":2727:2736   */\n      dup2\n        /* \"#utility.yul\":2721:2725   */\n      dup2\n        /* \"#utility.yul\":2717:2737   */\n      sub\n        /* \"#utility.yul\":2713:2714   */\n      0x00\n        /* \"#utility.yul\":2702:2711   */\n      dup4\n        /* \"#utility.yul\":2698:2715   */\n      add\n        /* \"#utility.yul\":2691:2738   */\n      mstore\n        /* \"#utility.yul\":2755:2833   */\n      tag_112\n        /* \"#utility.yul\":2828:2832   */\n      dup2\n        /* \"#utility.yul\":2819:2825   */\n      dup5\n        /* \"#utility.yul\":2755:2833   */\n      tag_70\n      jump\t// in\n    tag_112:\n        /* \"#utility.yul\":2747:2833   */\n      swap1\n      pop\n        /* \"#utility.yul\":2527:2840   */\n      swap3\n      swap2\n      pop\n      pop\n      jump\t// out\n        /* \"#utility.yul\":2846:2994   */\n    tag_71:\n        /* \"#utility.yul\":2948:2959   */\n      0x00\n        /* \"#utility.yul\":2985:2988   */\n      dup2\n        /* \"#utility.yul\":2970:2988   */\n      swap1\n      pop\n        /* \"#utility.yul\":2846:2994   */\n      swap3\n      swap2\n      pop\n      pop\n      jump\t// out\n        /* \"#utility.yul\":3000:3170   */\n    tag_72:\n        /* \"#utility.yul\":3140:3162   */\n      0x596f75206861766520696e746572616374656420000000000000000000000000\n        /* \"#utility.yul\":3136:3137   */\n      0x00\n        /* \"#utility.yul\":3128:3134   */\n      dup3\n        /* \"#utility.yul\":3124:3138   */\n      add\n        /* \"#utility.yul\":3117:3163   */\n      mstore\n        /* \"#utility.yul\":3000:3170   */\n      pop\n      jump\t// out\n        /* \"#utility.yul\":3176:3578   */\n    tag_73:\n        /* \"#utility.yul\":3336:3339   */\n      0x00\n        /* \"#utility.yul\":3357:3442   */\n      tag_116\n        /* \"#utility.yul\":3439:3441   */\n      0x14\n        /* \"#utility.yul\":3434:3437   */\n      dup4\n        /* \"#utility.yul\":3357:3442   */\n      tag_71\n      jump\t// in\n    tag_116:\n        /* \"#utility.yul\":3350:3442   */\n      swap2\n      pop\n        /* \"#utility.yul\":3451:3544   */\n      tag_117\n        /* \"#utility.yul\":3540:3543   */\n      dup3\n        /* \"#utility.yul\":3451:3544   */\n      tag_72\n      jump\t// in\n    tag_117:\n        /* \"#utility.yul\":3569:3571   */\n      0x14\n        /* \"#utility.yul\":3564:3567   */\n      dup3\n        /* \"#utility.yul\":3560:3572   */\n      add\n        /* \"#utility.yul\":3553:3572   */\n      swap1\n      pop\n        /* \"#utility.yul\":3176:3578   */\n      swap2\n      swap1\n      pop\n      jump\t// out\n        /* \"#utility.yul\":3584:3974   */\n    tag_74:\n        /* \"#utility.yul\":3690:3693   */\n      0x00\n        /* \"#utility.yul\":3718:3757   */\n      tag_119\n        /* \"#utility.yul\":3751:3756   */\n      dup3\n        /* \"#utility.yul\":3718:3757   */\n      tag_66\n      jump\t// in\n    tag_119:\n        /* \"#utility.yul\":3773:3862   */\n      tag_120\n        /* \"#utility.yul\":3855:3861   */\n      dup2\n        /* \"#utility.yul\":3850:3853   */\n      dup6\n        /* \"#utility.yul\":3773:3862   */\n      tag_71\n      jump\t// in\n    tag_120:\n        /* \"#utility.yul\":3766:3862   */\n      swap4\n      pop\n        /* \"#utility.yul\":3871:3936   */\n      tag_121\n        /* \"#utility.yul\":3929:3935   */\n      dup2\n        /* \"#utility.yul\":3924:3927   */\n      dup6\n        /* \"#utility.yul\":3917:3921   */\n      0x20\n        /* \"#utility.yul\":3910:3915   */\n      dup7\n        /* \"#utility.yul\":3906:3922   */\n      add\n        /* \"#utility.yul\":3871:3936   */\n      tag_68\n      jump\t// in\n    tag_121:\n        /* \"#utility.yul\":3961:3967   */\n      dup1\n        /* \"#utility.yul\":3956:3959   */\n      dup5\n        /* \"#utility.yul\":3952:3968   */\n      add\n        /* \"#utility.yul\":3945:3968   */\n      swap2\n      pop\n        /* \"#utility.yul\":3694:3974   */\n      pop\n        /* \"#utility.yul\":3584:3974   */\n      swap3\n      swap2\n      pop\n      pop\n      jump\t// out\n        /* \"#utility.yul\":3980:4209   */\n    tag_75:\n        /* \"#utility.yul\":4120:4154   */\n      0x2074696d65732e205468616e6b20796f7520666f72206265696e67206c6f7961\n        /* \"#utility.yul\":4116:4117   */\n      0x00\n        /* \"#utility.yul\":4108:4114   */\n      dup3\n        /* \"#utility.yul\":4104:4118   */\n      add\n        /* \"#utility.yul\":4097:4155   */\n      mstore\n        /* \"#utility.yul\":4189:4201   */\n      0x6c20776974682075732100000000000000000000000000000000000000000000\n        /* \"#utility.yul\":4184:4186   */\n      0x20\n        /* \"#utility.yul\":4176:4182   */\n      dup3\n        /* \"#utility.yul\":4172:4187   */\n      add\n        /* \"#utility.yul\":4165:4202   */\n      mstore\n        /* \"#utility.yul\":3980:4209   */\n      pop\n      jump\t// out\n        /* \"#utility.yul\":4215:4617   */\n    tag_76:\n        /* \"#utility.yul\":4375:4378   */\n      0x00\n        /* \"#utility.yul\":4396:4481   */\n      tag_124\n        /* \"#utility.yul\":4478:4480   */\n      0x2a\n        /* \"#utility.yul\":4473:4476   */\n      dup4\n        /* \"#utility.yul\":4396:4481   */\n      tag_71\n      jump\t// in\n    tag_124:\n        /* \"#utility.yul\":4389:4481   */\n      swap2\n      pop\n        /* \"#utility.yul\":4490:4583   */\n      tag_125\n        /* \"#utility.yul\":4579:4582   */\n      dup3\n        /* \"#utility.yul\":4490:4583   */\n      tag_75\n      jump\t// in\n    tag_125:\n        /* \"#utility.yul\":4608:4610   */\n      0x2a\n        /* \"#utility.yul\":4603:4606   */\n      dup3\n        /* \"#utility.yul\":4599:4611   */\n      add\n        /* \"#utility.yul\":4592:4611   */\n      swap1\n      pop\n        /* \"#utility.yul\":4215:4617   */\n      swap2\n      swap1\n      pop\n      jump\t// out\n        /* \"#utility.yul\":4623:5430   */\n    tag_24:\n        /* \"#utility.yul\":4957:4960   */\n      0x00\n        /* \"#utility.yul\":4979:5127   */\n      tag_127\n        /* \"#utility.yul\":5123:5126   */\n      dup3\n        /* \"#utility.yul\":4979:5127   */\n      tag_73\n      jump\t// in\n    tag_127:\n        /* \"#utility.yul\":4972:5127   */\n      swap2\n      pop\n        /* \"#utility.yul\":5144:5239   */\n      tag_128\n        /* \"#utility.yul\":5235:5238   */\n      dup3\n        /* \"#utility.yul\":5226:5232   */\n      dup5\n        /* \"#utility.yul\":5144:5239   */\n      tag_74\n      jump\t// in\n    tag_128:\n        /* \"#utility.yul\":5137:5239   */\n      swap2\n      pop\n        /* \"#utility.yul\":5256:5404   */\n      tag_129\n        /* \"#utility.yul\":5400:5403   */\n      dup3\n        /* \"#utility.yul\":5256:5404   */\n      tag_76\n      jump\t// in\n    tag_129:\n        /* \"#utility.yul\":5249:5404   */\n      swap2\n      pop\n        /* \"#utility.yul\":5421:5424   */\n      dup2\n        /* \"#utility.yul\":5414:5424   */\n      swap1\n      pop\n        /* \"#utility.yul\":4623:5430   */\n      swap3\n      swap2\n      pop\n      pop\n      jump\t// out\n        /* \"#utility.yul\":5436:5605   */\n    tag_77:\n        /* \"#utility.yul\":5576:5597   */\n      0x2074696d65732e204b65657020676f696e672100000000000000000000000000\n        /* \"#utility.yul\":5572:5573   */\n      0x00\n        /* \"#utility.yul\":5564:5570   */\n      dup3\n        /* \"#utility.yul\":5560:5574   */\n      add\n        /* \"#utility.yul\":5553:5598   */\n      mstore\n        /* \"#utility.yul\":5436:5605   */\n      pop\n      jump\t// out\n        /* \"#utility.yul\":5611:6013   */\n    tag_78:\n        /* \"#utility.yul\":5771:5774   */\n      0x00\n        /* \"#utility.yul\":5792:5877   */\n      tag_132\n        /* \"#utility.yul\":5874:5876   */\n      0x13\n        /* \"#utility.yul\":5869:5872   */\n      dup4\n        /* \"#utility.yul\":5792:5877   */\n      tag_71\n      jump\t// in\n    tag_132:\n        /* \"#utility.yul\":5785:5877   */\n      swap2\n      pop\n        /* \"#utility.yul\":5886:5979   */\n      tag_133\n        /* \"#utility.yul\":5975:5978   */\n      dup3\n        /* \"#utility.yul\":5886:5979   */\n      tag_77\n      jump\t// in\n    tag_133:\n        /* \"#utility.yul\":6004:6006   */\n      0x13\n        /* \"#utility.yul\":5999:6002   */\n      dup3\n        /* \"#utility.yul\":5995:6007   */\n      add\n        /* \"#utility.yul\":5988:6007   */\n      swap1\n      pop\n        /* \"#utility.yul\":5611:6013   */\n      swap2\n      swap1\n      pop\n      jump\t// out\n        /* \"#utility.yul\":6019:6826   */\n    tag_28:\n        /* \"#utility.yul\":6353:6356   */\n      0x00\n        /* \"#utility.yul\":6375:6523   */\n      tag_135\n        /* \"#utility.yul\":6519:6522   */\n      dup3\n        /* \"#utility.yul\":6375:6523   */\n      tag_73\n      jump\t// in\n    tag_135:\n        /* \"#utility.yul\":6368:6523   */\n      swap2\n      pop\n        /* \"#utility.yul\":6540:6635   */\n      tag_136\n        /* \"#utility.yul\":6631:6634   */\n      dup3\n        /* \"#utility.yul\":6622:6628   */\n      dup5\n        /* \"#utility.yul\":6540:6635   */\n      tag_74\n      jump\t// in\n    tag_136:\n        /* \"#utility.yul\":6533:6635   */\n      swap2\n      pop\n        /* \"#utility.yul\":6652:6800   */\n      tag_137\n        /* \"#utility.yul\":6796:6799   */\n      dup3\n        /* \"#utility.yul\":6652:6800   */\n      tag_78\n      jump\t// in\n    tag_137:\n        /* \"#utility.yul\":6645:6800   */\n      swap2\n      pop\n        /* \"#utility.yul\":6817:6820   */\n      dup2\n        /* \"#utility.yul\":6810:6820   */\n      swap1\n      pop\n        /* \"#utility.yul\":6019:6826   */\n      swap3\n      swap2\n      pop\n      pop\n      jump\t// out\n        /* \"#utility.yul\":6832:7012   */\n    tag_79:\n        /* \"#utility.yul\":6880:6957   */\n      0x4e487b7100000000000000000000000000000000000000000000000000000000\n        /* \"#utility.yul\":6877:6878   */\n      0x00\n        /* \"#utility.yul\":6870:6958   */\n      mstore\n        /* \"#utility.yul\":6977:6981   */\n      0x11\n        /* \"#utility.yul\":6974:6975   */\n      0x04\n        /* \"#utility.yul\":6967:6982   */\n      mstore\n        /* \"#utility.yul\":7001:7005   */\n      0x24\n        /* \"#utility.yul\":6998:6999   */\n      0x00\n        /* \"#utility.yul\":6991:7006   */\n      revert\n        /* \"#utility.yul\":7018:7209   */\n    tag_31:\n        /* \"#utility.yul\":7058:7061   */\n      0x00\n        /* \"#utility.yul\":7077:7097   */\n      tag_140\n        /* \"#utility.yul\":7095:7096   */\n      dup3\n        /* \"#utility.yul\":7077:7097   */\n      tag_64\n      jump\t// in\n    tag_140:\n        /* \"#utility.yul\":7072:7097   */\n      swap2\n      pop\n        /* \"#utility.yul\":7111:7131   */\n      tag_141\n        /* \"#utility.yul\":7129:7130   */\n      dup4\n        /* \"#utility.yul\":7111:7131   */\n      tag_64\n      jump\t// in\n    tag_141:\n        /* \"#utility.yul\":7106:7131   */\n      swap3\n      pop\n        /* \"#utility.yul\":7154:7155   */\n      dup3\n        /* \"#utility.yul\":7151:7152   */\n      dup3\n        /* \"#utility.yul\":7147:7156   */\n      add\n        /* \"#utility.yul\":7140:7156   */\n      swap1\n      pop\n        /* \"#utility.yul\":7175:7178   */\n      dup1\n        /* \"#utility.yul\":7172:7173   */\n      dup3\n        /* \"#utility.yul\":7169:7179   */\n      gt\n        /* \"#utility.yul\":7166:7202   */\n      iszero\n      tag_142\n      jumpi\n        /* \"#utility.yul\":7182:7200   */\n      tag_143\n      tag_79\n      jump\t// in\n    tag_143:\n        /* \"#utility.yul\":7166:7202   */\n    tag_142:\n        /* \"#utility.yul\":7018:7209   */\n      swap3\n      swap2\n      pop\n      pop\n      jump\t// out\n        /* \"#utility.yul\":7215:7448   */\n    tag_39:\n        /* \"#utility.yul\":7254:7257   */\n      0x00\n        /* \"#utility.yul\":7277:7301   */\n      tag_145\n        /* \"#utility.yul\":7295:7300   */\n      dup3\n        /* \"#utility.yul\":7277:7301   */\n      tag_64\n      jump\t// in\n    tag_145:\n        /* \"#utility.yul\":7268:7301   */\n      swap2\n      pop\n        /* \"#utility.yul\":7323:7389   */\n      0xffffffffffffffffffffffffffffffffffffffffffffffffffffffffffffffff\n        /* \"#utility.yul\":7316:7321   */\n      dup3\n        /* \"#utility.yul\":7313:7390   */\n      sub\n        /* \"#utility.yul\":7310:7413   */\n      tag_146\n      jumpi\n        /* \"#utility.yul\":7393:7411   */\n      tag_147\n      tag_79\n      jump\t// in\n    tag_147:\n        /* \"#utility.yul\":7310:7413   */\n    tag_146:\n        /* \"#utility.yul\":7440:7441   */\n      0x01\n        /* \"#utility.yul\":7433:7438   */\n      dup3\n        /* \"#utility.yul\":7429:7442   */\n      add\n        /* \"#utility.yul\":7422:7442   */\n      swap1\n      pop\n        /* \"#utility.yul\":7215:7448   */\n      swap2\n      swap1\n      pop\n      jump\t// out\n        /* \"#utility.yul\":7454:7634   */\n    tag_80:\n        /* \"#utility.yul\":7502:7579   */\n      0x4e487b7100000000000000000000000000000000000000000000000000000000\n        /* \"#utility.yul\":7499:7500   */\n      0x00\n        /* \"#utility.yul\":7492:7580   */\n      mstore\n        /* \"#utility.yul\":7599:7603   */\n      0x12\n        /* \"#utility.yul\":7596:7597   */\n      0x04\n        /* \"#utility.yul\":7589:7604   */\n      mstore\n        /* \"#utility.yul\":7623:7627   */\n      0x24\n        /* \"#utility.yul\":7620:7621   */\n      0x00\n        /* \"#utility.yul\":7613:7628   */\n      revert\n        /* \"#utility.yul\":7640:7825   */\n    tag_41:\n        /* \"#utility.yul\":7680:7681   */\n      0x00\n        /* \"#utility.yul\":7697:7717   */\n      tag_150\n        /* \"#utility.yul\":7715:7716   */\n      dup3\n        /* \"#utility.yul\":7697:7717   */\n      tag_64\n      jump\t// in\n    tag_150:\n        /* \"#utility.yul\":7692:7717   */\n      swap2\n      pop\n        /* \"#utility.yul\":7731:7751   */\n      tag_151\n        /* \"#utility.yul\":7749:7750   */\n      dup4\n        /* \"#utility.yul\":7731:7751   */\n      tag_64\n      jump\t// in\n    tag_151:\n        /* \"#utility.yul\":7726:7751   */\n      swap3\n      pop\n        /* \"#utility.yul\":7770:7771   */\n      dup3\n        /* \"#utility.yul\":7760:7795   */\n      tag_152\n      jumpi\n        /* \"#utility.yul\":7775:7793   */\n      tag_153\n      tag_80\n      jump\t// in\n    tag_153:\n        /* \"#utility.yul\":7760:7795   */\n    tag_152:\n        /* \"#utility.yul\":7817:7818   */\n      dup3\n        /* \"#utility.yul\":7814:7815   */\n      dup3\n        /* \"#utility.yul\":7810:7819   */\n      div\n        /* \"#utility.yul\":7805:7819   */\n      swap1\n      pop\n        /* \"#utility.yul\":7640:7825   */\n      swap3\n      swap2\n      pop\n      pop\n      jump\t// out\n        /* \"#utility.yul\":7831:8011   */\n    tag_44:\n        /* \"#utility.yul\":7879:7956   */\n      0x4e487b7100000000000000000000000000000000000000000000000000000000\n        /* \"#utility.yul\":7876:7877   */\n      0x00\n        /* \"#utility.yul\":7869:7957   */\n      mstore\n        /* \"#utility.yul\":7976:7980   */\n      0x41\n        /* \"#utility.yul\":7973:7974   */\n      0x04\n        /* \"#utility.yul\":7966:7981   */\n      mstore\n        /* \"#utility.yul\":8000:8004   */\n      0x24\n        /* \"#utility.yul\":7997:7998   */\n      0x00\n        /* \"#utility.yul\":7990:8005   */\n      revert\n        /* \"#utility.yul\":8017:8193   */\n    tag_49:\n        /* \"#utility.yul\":8049:8050   */\n      0x00\n        /* \"#utility.yul\":8066:8086   */\n      tag_156\n        /* \"#utility.yul\":8084:8085   */\n      dup3\n        /* \"#utility.yul\":8066:8086   */\n      tag_64\n      jump\t// in\n    tag_156:\n        /* \"#utility.yul\":8061:8086   */\n      swap2\n      pop\n        /* \"#utility.yul\":8100:8120   */\n      tag_157\n        /* \"#utility.yul\":8118:8119   */\n      dup4\n        /* \"#utility.yul\":8100:8120   */\n      tag_64\n      jump\t// in\n    tag_157:\n        /* \"#utility.yul\":8095:8120   */\n      swap3\n      pop\n        /* \"#utility.yul\":8139:8140   */\n      dup3\n        /* \"#utility.yul\":8129:8164   */\n      tag_158\n      jumpi\n        /* \"#utility.yul\":8144:8162   */\n      tag_159\n      tag_80\n      jump\t// in\n    tag_159:\n        /* \"#utility.yul\":8129:8164   */\n    tag_158:\n        /* \"#utility.yul\":8185:8186   */\n      dup3\n        /* \"#utility.yul\":8182:8183   */\n      dup3\n        /* \"#utility.yul\":8178:8187   */\n      mod\n        /* \"#utility.yul\":8173:8187   */\n      swap1\n      pop\n        /* \"#utility.yul\":8017:8193   */\n      swap3\n      swap2\n      pop\n      pop\n      jump\t// out\n        /* \"#utility.yul\":8199:8370   */\n    tag_52:\n        /* \"#utility.yul\":8238:8241   */\n      0x00\n        /* \"#utility.yul\":8261:8285   */\n      tag_161\n        /* \"#utility.yul\":8279:8284   */\n      dup3\n        /* \"#utility.yul\":8261:8285   */\n      tag_64\n      jump\t// in\n    tag_161:\n        /* \"#utility.yul\":8252:8285   */\n      swap2\n      pop\n        /* \"#utility.yul\":8307:8311   */\n      0x00\n        /* \"#utility.yul\":8300:8305   */\n      dup3\n        /* \"#utility.yul\":8297:8312   */\n      sub\n        /* \"#utility.yul\":8294:8335   */\n      tag_162\n      jumpi\n        /* \"#utility.yul\":8315:8333   */\n      tag_163\n      tag_79\n      jump\t// in\n    tag_163:\n        /* \"#utility.yul\":8294:8335   */\n    tag_162:\n        /* \"#utility.yul\":8362:8363   */\n      0x01\n        /* \"#utility.yul\":8355:8360   */\n      dup3\n        /* \"#utility.yul\":8351:8364   */\n      sub\n        /* \"#utility.yul\":8344:8364   */\n      swap1\n      pop\n        /* \"#utility.yul\":8199:8370   */\n      swap2\n      swap1\n      pop\n      jump\t// out\n        /* \"#utility.yul\":8376:8556   */\n    tag_55:\n        /* \"#utility.yul\":8424:8501   */\n      0x4e487b7100000000000000000000000000000000000000000000000000000000\n        /* \"#utility.yul\":8421:8422   */\n      0x00\n        /* \"#utility.yul\":8414:8502   */\n      mstore\n        /* \"#utility.yul\":8521:8525   */\n      0x32\n        /* \"#utility.yul\":8518:8519   */\n      0x04\n        /* \"#utility.yul\":8511:8526   */\n      mstore\n        /* \"#utility.yul\":8545:8549   */\n      0x24\n        /* \"#utility.yul\":8542:8543   */\n      0x00\n        /* \"#utility.yul\":8535:8550   */\n      revert\n\n    auxdata: 0xa2646970667358221220b6e832b0625f5d76223b95ff8254a178198184dfd759df59b46848b4c0935f3364736f6c634300081e0033\n}\n",
				"bytecode": {
					"linkReferences": {},
					"object": "6080604052348015600e575f5ffd5b506108b08061001c5f395ff3fe608060405234801561000f575f5ffd5b506004361061003f575f3560e01c806308a6f2521461004357806379ab8f1f14610073578063b627cf3b14610091575b5f5ffd5b61005d60048036038101906100589190610443565b6100af565b60405161006a9190610486565b60405180910390f35b61007b6100c3565b604051610088919061050f565b60405180910390f35b61009961016d565b6040516100a6919061050f565b60405180910390f35b5f602052805f5260405f205f915090505481565b60605f5f5f3373ffffffffffffffffffffffffffffffffffffffff1673ffffffffffffffffffffffffffffffffffffffff1681526020019081526020015f20549050606481111561013e5761011781610287565b6040516020016101279190610623565b60405160208183030381529060405291505061016a565b61014781610287565b6040516020016101579190610699565b6040516020818303038152906040529150505b90565b606060015f5f3373ffffffffffffffffffffffffffffffffffffffff1673ffffffffffffffffffffffffffffffffffffffff1681526020019081526020015f205f8282546101bb91906106f2565b925050819055503373ffffffffffffffffffffffffffffffffffffffff167ff12489dc722d1cccd7b674152f04c8cce3e81ceb99919ed914fc0a318923c2c45f5f3373ffffffffffffffffffffffffffffffffffffffff1673ffffffffffffffffffffffffffffffffffffffff1681526020019081526020015f20546040516102449190610486565b60405180910390a26040518060400160405280601f81526020017f57656c636f6d6520746f20746865204d6f6e616420436f6d6d756e6974792100815250905090565b60605f82036102cd576040518060400160405280600181526020017f300000000000000000000000000000000000000000000000000000000000000081525090506103e0565b5f8290505f5b5f82146102fc5780806102e590610725565b915050600a826102f59190610799565b91506102d3565b5f8167ffffffffffffffff811115610317576103166107c9565b5b6040519080825280601f01601f1916602001820160405280156103495781602001600182028036833780820191505090505b5090505f8290508593505b5f84146103d857600a8461036891906107f6565b603061037491906106f2565b60f81b828261038290610826565b925082815181106103965761039561084d565b5b60200101907effffffffffffffffffffffffffffffffffffffffffffffffffffffffffffff191690815f1a905350600a846103d19190610799565b9350610354565b819450505050505b919050565b5f5ffd5b5f73ffffffffffffffffffffffffffffffffffffffff82169050919050565b5f610412826103e9565b9050919050565b61042281610408565b811461042c575f5ffd5b50565b5f8135905061043d81610419565b92915050565b5f60208284031215610458576104576103e5565b5b5f6104658482850161042f565b91505092915050565b5f819050919050565b6104808161046e565b82525050565b5f6020820190506104995f830184610477565b92915050565b5f81519050919050565b5f82825260208201905092915050565b8281835e5f83830152505050565b5f601f19601f8301169050919050565b5f6104e18261049f565b6104eb81856104a9565b93506104fb8185602086016104b9565b610504816104c7565b840191505092915050565b5f6020820190508181035f83015261052781846104d7565b905092915050565b5f81905092915050565b7f596f75206861766520696e7465726163746564200000000000000000000000005f82015250565b5f61056d60148361052f565b915061057882610539565b601482019050919050565b5f61058d8261049f565b610597818561052f565b93506105a78185602086016104b9565b80840191505092915050565b7f2074696d65732e205468616e6b20796f7520666f72206265696e67206c6f79615f8201527f6c20776974682075732100000000000000000000000000000000000000000000602082015250565b5f61060d602a8361052f565b9150610618826105b3565b602a82019050919050565b5f61062d82610561565b91506106398284610583565b915061064482610601565b915081905092915050565b7f2074696d65732e204b65657020676f696e6721000000000000000000000000005f82015250565b5f61068360138361052f565b915061068e8261064f565b601382019050919050565b5f6106a382610561565b91506106af8284610583565b91506106ba82610677565b915081905092915050565b7f4e487b71000000000000000000000000000000000000000000000000000000005f52601160045260245ffd5b5f6106fc8261046e565b91506107078361046e565b925082820190508082111561071f5761071e6106c5565b5b92915050565b5f61072f8261046e565b91507fffffffffffffffffffffffffffffffffffffffffffffffffffffffffffffffff8203610761576107606106c5565b5b600182019050919050565b7f4e487b71000000000000000000000000000000000000000000000000000000005f52601260045260245ffd5b5f6107a38261046e565b91506107ae8361046e565b9250826107be576107bd61076c565b5b828204905092915050565b7f4e487b71000000000000000000000000000000000000000000000000000000005f52604160045260245ffd5b5f6108008261046e565b915061080b8361046e565b92508261081b5761081a61076c565b5b828206905092915050565b5f6108308261046e565b91505f8203610842576108416106c5565b5b600182039050919050565b7f4e487b71000000000000000000000000000000000000000000000000000000005f52603260045260245ffdfea2646970667358221220b6e832b0625f5d76223b95ff8254a178198184dfd759df59b46848b4c0935f3364736f6c634300081e0033",
					"opcodes": "PUSH1 0x80 PUSH1 0x40 MSTORE CALLVALUE DUP1 ISZERO PUSH1 0xE JUMPI PUSH0 PUSH0 REVERT JUMPDEST POP PUSH2 0x8B0 DUP1 PUSH2 0x1C PUSH0 CODECOPY PUSH0 RETURN INVALID PUSH1 0x80 PUSH1 0x40 MSTORE CALLVALUE DUP1 ISZERO PUSH2 0xF JUMPI PUSH0 PUSH0 REVERT JUMPDEST POP PUSH1 0x4 CALLDATASIZE LT PUSH2 0x3F JUMPI PUSH0 CALLDATALOAD PUSH1 0xE0 SHR DUP1 PUSH4 0x8A6F252 EQ PUSH2 0x43 JUMPI DUP1 PUSH4 0x79AB8F1F EQ PUSH2 0x73 JUMPI DUP1 PUSH4 0xB627CF3B EQ PUSH2 0x91 JUMPI JUMPDEST PUSH0 PUSH0 REVERT JUMPDEST PUSH2 0x5D PUSH1 0x4 DUP1 CALLDATASIZE SUB DUP2 ADD SWAP1 PUSH2 0x58 SWAP2 SWAP1 PUSH2 0x443 JUMP JUMPDEST PUSH2 0xAF JUMP JUMPDEST PUSH1 0x40 MLOAD PUSH2 0x6A SWAP2 SWAP1 PUSH2 0x486 JUMP JUMPDEST PUSH1 0x40 MLOAD DUP1 SWAP2 SUB SWAP1 RETURN JUMPDEST PUSH2 0x7B PUSH2 0xC3 JUMP JUMPDEST PUSH1 0x40 MLOAD PUSH2 0x88 SWAP2 SWAP1 PUSH2 0x50F JUMP JUMPDEST PUSH1 0x40 MLOAD DUP1 SWAP2 SUB SWAP1 RETURN JUMPDEST PUSH2 0x99 PUSH2 0x16D JUMP JUMPDEST PUSH1 0x40 MLOAD PUSH2 0xA6 SWAP2 SWAP1 PUSH2 0x50F JUMP JUMPDEST PUSH1 0x40 MLOAD DUP1 SWAP2 SUB SWAP1 RETURN JUMPDEST PUSH0 PUSH1 0x20 MSTORE DUP1 PUSH0 MSTORE PUSH1 0x40 PUSH0 KECCAK256 PUSH0 SWAP2 POP SWAP1 POP SLOAD DUP2 JUMP JUMPDEST PUSH1 0x60 PUSH0 PUSH0 PUSH0 CALLER PUSH20 0xFFFFFFFFFFFFFFFFFFFFFFFFFFFFFFFFFFFFFFFF AND PUSH20 0xFFFFFFFFFFFFFFFFFFFFFFFFFFFFFFFFFFFFFFFF AND DUP2 MSTORE PUSH1 0x20 ADD SWAP1 DUP2 MSTORE PUSH1 0x20 ADD PUSH0 KECCAK256 SLOAD SWAP1 POP PUSH1 0x64 DUP2 GT ISZERO PUSH2 0x13E JUMPI PUSH2 0x117 DUP2 PUSH2 0x287 JUMP JUMPDEST PUSH1 0x40 MLOAD PUSH1 0x20 ADD PUSH2 0x127 SWAP2 SWAP1 PUSH2 0x623 JUMP JUMPDEST PUSH1 0x40 MLOAD PUSH1 0x20 DUP2 DUP4 SUB SUB DUP2 MSTORE SWAP1 PUSH1 0x40 MSTORE SWAP2 POP POP PUSH2 0x16A JUMP JUMPDEST PUSH2 0x147 DUP2 PUSH2 0x287 JUMP JUMPDEST PUSH1 0x40 MLOAD PUSH1 0x20 ADD PUSH2 0x157 SWAP2 SWAP1 PUSH2 0x699 JUMP JUMPDEST PUSH1 0x40 MLOAD PUSH1 0x20 DUP2 DUP4 SUB SUB DUP2 MSTORE SWAP1 PUSH1 0x40 MSTORE SWAP2 POP POP JUMPDEST SWAP1 JUMP JUMPDEST PUSH1 0x60 PUSH1 0x1 PUSH0 PUSH0 CALLER PUSH20 0xFFFFFFFFFFFFFFFFFFFFFFFFFFFFFFFFFFFFFFFF AND PUSH20 0xFFFFFFFFFFFFFFFFFFFFFFFFFFFFFFFFFFFFFFFF AND DUP2 MSTORE PUSH1 0x20 ADD SWAP1 DUP2 MSTORE PUSH1 0x20 ADD PUSH0 KECCAK256 PUSH0 DUP3 DUP3 SLOAD PUSH2 0x1BB SWAP2 SWAP1 PUSH2 0x6F2 JUMP JUMPDEST SWAP3 POP POP DUP2 SWAP1 SSTORE POP CALLER PUSH20 0xFFFFFFFFFFFFFFFFFFFFFFFFFFFFFFFFFFFFFFFF AND PUSH32 0xF12489DC722D1CCCD7B674152F04C8CCE3E81CEB99919ED914FC0A318923C2C4 PUSH0 PUSH0 CALLER PUSH20 0xFFFFFFFFFFFFFFFFFFFFFFFFFFFFFFFFFFFFFFFF AND PUSH20 0xFFFFFFFFFFFFFFFFFFFFFFFFFFFFFFFFFFFFFFFF AND DUP2 MSTORE PUSH1 0x20 ADD SWAP1 DUP2 MSTORE PUSH1 0x20 ADD PUSH0 KECCAK256 SLOAD PUSH1 0x40 MLOAD PUSH2 0x244 SWAP2 SWAP1 PUSH2 0x486 JUMP JUMPDEST PUSH1 0x40 MLOAD DUP1 SWAP2 SUB SWAP1 LOG2 PUSH1 0x40 MLOAD DUP1 PUSH1 0x40 ADD PUSH1 0x40 MSTORE DUP1 PUSH1 0x1F DUP2 MSTORE PUSH1 0x20 ADD PUSH32 0x57656C636F6D6520746F20746865204D6F6E616420436F6D6D756E6974792100 DUP2 MSTORE POP SWAP1 POP SWAP1 JUMP JUMPDEST PUSH1 0x60 PUSH0 DUP3 SUB PUSH2 0x2CD JUMPI PUSH1 0x40 MLOAD DUP1 PUSH1 0x40 ADD PUSH1 0x40 MSTORE DUP1 PUSH1 0x1 DUP2 MSTORE PUSH1 0x20 ADD PUSH32 0x3000000000000000000000000000000000000000000000000000000000000000 DUP2 MSTORE POP SWAP1 POP PUSH2 0x3E0 JUMP JUMPDEST PUSH0 DUP3 SWAP1 POP PUSH0 JUMPDEST PUSH0 DUP3 EQ PUSH2 0x2FC JUMPI DUP1 DUP1 PUSH2 0x2E5 SWAP1 PUSH2 0x725 JUMP JUMPDEST SWAP2 POP POP PUSH1 0xA DUP3 PUSH2 0x2F5 SWAP2 SWAP1 PUSH2 0x799 JUMP JUMPDEST SWAP2 POP PUSH2 0x2D3 JUMP JUMPDEST PUSH0 DUP2 PUSH8 0xFFFFFFFFFFFFFFFF DUP2 GT ISZERO PUSH2 0x317 JUMPI PUSH2 0x316 PUSH2 0x7C9 JUMP JUMPDEST JUMPDEST PUSH1 0x40 MLOAD SWAP1 DUP1 DUP3 MSTORE DUP1 PUSH1 0x1F ADD PUSH1 0x1F NOT AND PUSH1 0x20 ADD DUP3 ADD PUSH1 0x40 MSTORE DUP1 ISZERO PUSH2 0x349 JUMPI DUP2 PUSH1 0x20 ADD PUSH1 0x1 DUP3 MUL DUP1 CALLDATASIZE DUP4 CALLDATACOPY DUP1 DUP3 ADD SWAP2 POP POP SWAP1 POP JUMPDEST POP SWAP1 POP PUSH0 DUP3 SWAP1 POP DUP6 SWAP4 POP JUMPDEST PUSH0 DUP5 EQ PUSH2 0x3D8 JUMPI PUSH1 0xA DUP5 PUSH2 0x368 SWAP2 SWAP1 PUSH2 0x7F6 JUMP JUMPDEST PUSH1 0x30 PUSH2 0x374 SWAP2 SWAP1 PUSH2 0x6F2 JUMP JUMPDEST PUSH1 0xF8 SHL DUP3 DUP3 PUSH2 0x382 SWAP1 PUSH2 0x826 JUMP JUMPDEST SWAP3 POP DUP3 DUP2 MLOAD DUP2 LT PUSH2 0x396 JUMPI PUSH2 0x395 PUSH2 0x84D JUMP JUMPDEST JUMPDEST PUSH1 0x20 ADD ADD SWAP1 PUSH31 0xFFFFFFFFFFFFFFFFFFFFFFFFFFFFFFFFFFFFFFFFFFFFFFFFFFFFFFFFFFFFFF NOT AND SWAP1 DUP2 PUSH0 BYTE SWAP1 MSTORE8 POP PUSH1 0xA DUP5 PUSH2 0x3D1 SWAP2 SWAP1 PUSH2 0x799 JUMP JUMPDEST SWAP4 POP PUSH2 0x354 JUMP JUMPDEST DUP2 SWAP5 POP POP POP POP POP JUMPDEST SWAP2 SWAP1 POP JUMP JUMPDEST PUSH0 PUSH0 REVERT JUMPDEST PUSH0 PUSH20 0xFFFFFFFFFFFFFFFFFFFFFFFFFFFFFFFFFFFFFFFF DUP3 AND SWAP1 POP SWAP2 SWAP1 POP JUMP JUMPDEST PUSH0 PUSH2 0x412 DUP3 PUSH2 0x3E9 JUMP JUMPDEST SWAP1 POP SWAP2 SWAP1 POP JUMP JUMPDEST PUSH2 0x422 DUP2 PUSH2 0x408 JUMP JUMPDEST DUP2 EQ PUSH2 0x42C JUMPI PUSH0 PUSH0 REVERT JUMPDEST POP JUMP JUMPDEST PUSH0 DUP2 CALLDATALOAD SWAP1 POP PUSH2 0x43D DUP2 PUSH2 0x419 JUMP JUMPDEST SWAP3 SWAP2 POP POP JUMP JUMPDEST PUSH0 PUSH1 0x20 DUP3 DUP5 SUB SLT ISZERO PUSH2 0x458 JUMPI PUSH2 0x457 PUSH2 0x3E5 JUMP JUMPDEST JUMPDEST PUSH0 PUSH2 0x465 DUP5 DUP3 DUP6 ADD PUSH2 0x42F JUMP JUMPDEST SWAP2 POP POP SWAP3 SWAP2 POP POP JUMP JUMPDEST PUSH0 DUP2 SWAP1 POP SWAP2 SWAP1 POP JUMP JUMPDEST PUSH2 0x480 DUP2 PUSH2 0x46E JUMP JUMPDEST DUP3 MSTORE POP POP JUMP JUMPDEST PUSH0 PUSH1 0x20 DUP3 ADD SWAP1 POP PUSH2 0x499 PUSH0 DUP4 ADD DUP5 PUSH2 0x477 JUMP JUMPDEST SWAP3 SWAP2 POP POP JUMP JUMPDEST PUSH0 DUP2 MLOAD SWAP1 POP SWAP2 SWAP1 POP JUMP JUMPDEST PUSH0 DUP3 DUP3 MSTORE PUSH1 0x20 DUP3 ADD SWAP1 POP SWAP3 SWAP2 POP POP JUMP JUMPDEST DUP3 DUP2 DUP4 MCOPY PUSH0 DUP4 DUP4 ADD MSTORE POP POP POP JUMP JUMPDEST PUSH0 PUSH1 0x1F NOT PUSH1 0x1F DUP4 ADD AND SWAP1 POP SWAP2 SWAP1 POP JUMP JUMPDEST PUSH0 PUSH2 0x4E1 DUP3 PUSH2 0x49F JUMP JUMPDEST PUSH2 0x4EB DUP2 DUP6 PUSH2 0x4A9 JUMP JUMPDEST SWAP4 POP PUSH2 0x4FB DUP2 DUP6 PUSH1 0x20 DUP7 ADD PUSH2 0x4B9 JUMP JUMPDEST PUSH2 0x504 DUP2 PUSH2 0x4C7 JUMP JUMPDEST DUP5 ADD SWAP2 POP POP SWAP3 SWAP2 POP POP JUMP JUMPDEST PUSH0 PUSH1 0x20 DUP3 ADD SWAP1 POP DUP2 DUP2 SUB PUSH0 DUP4 ADD MSTORE PUSH2 0x527 DUP2 DUP5 PUSH2 0x4D7 JUMP JUMPDEST SWAP1 POP SWAP3 SWAP2 POP POP JUMP JUMPDEST PUSH0 DUP2 SWAP1 POP SWAP3 SWAP2 POP POP JUMP JUMPDEST PUSH32 0x596F75206861766520696E746572616374656420000000000000000000000000 PUSH0 DUP3 ADD MSTORE POP JUMP JUMPDEST PUSH0 PUSH2 0x56D PUSH1 0x14 DUP4 PUSH2 0x52F JUMP JUMPDEST SWAP2 POP PUSH2 0x578 DUP3 PUSH2 0x539 JUMP JUMPDEST PUSH1 0x14 DUP3 ADD SWAP1 POP SWAP2 SWAP1 POP JUMP JUMPDEST PUSH0 PUSH2 0x58D DUP3 PUSH2 0x49F JUMP JUMPDEST PUSH2 0x597 DUP2 DUP6 PUSH2 0x52F JUMP JUMPDEST SWAP4 POP PUSH2 0x5A7 DUP2 DUP6 PUSH1 0x20 DUP7 ADD PUSH2 0x4B9 JUMP JUMPDEST DUP1 DUP5 ADD SWAP2 POP POP SWAP3 SWAP2 POP POP JUMP JUMPDEST PUSH32 0x2074696D65732E205468616E6B20796F7520666F72206265696E67206C6F7961 PUSH0 DUP3 ADD MSTORE PUSH32 0x6C20776974682075732100000000000000000000000000000000000000000000 PUSH1 0x20 DUP3 ADD MSTORE POP JUMP JUMPDEST PUSH0 PUSH2 0x60D PUSH1 0x2A DUP4 PUSH2 0x52F JUMP JUMPDEST SWAP2 POP PUSH2 0x618 DUP3 PUSH2 0x5B3 JUMP JUMPDEST PUSH1 0x2A DUP3 ADD SWAP1 POP SWAP2 SWAP1 POP JUMP JUMPDEST PUSH0 PUSH2 0x62D DUP3 PUSH2 0x561 JUMP JUMPDEST SWAP2 POP PUSH2 0x639 DUP3 DUP5 PUSH2 0x583 JUMP JUMPDEST SWAP2 POP PUSH2 0x644 DUP3 PUSH2 0x601 JUMP JUMPDEST SWAP2 POP DUP2 SWAP1 POP SWAP3 SWAP2 POP POP JUMP JUMPDEST PUSH32 0x2074696D65732E204B65657020676F696E672100000000000000000000000000 PUSH0 DUP3 ADD MSTORE POP JUMP JUMPDEST PUSH0 PUSH2 0x683 PUSH1 0x13 DUP4 PUSH2 0x52F JUMP JUMPDEST SWAP2 POP PUSH2 0x68E DUP3 PUSH2 0x64F JUMP JUMPDEST PUSH1 0x13 DUP3 ADD SWAP1 POP SWAP2 SWAP1 POP JUMP JUMPDEST PUSH0 PUSH2 0x6A3 DUP3 PUSH2 0x561 JUMP JUMPDEST SWAP2 POP PUSH2 0x6AF DUP3 DUP5 PUSH2 0x583 JUMP JUMPDEST SWAP2 POP PUSH2 0x6BA DUP3 PUSH2 0x677 JUMP JUMPDEST SWAP2 POP DUP2 SWAP1 POP SWAP3 SWAP2 POP POP JUMP JUMPDEST PUSH32 0x4E487B7100000000000000000000000000000000000000000000000000000000 PUSH0 MSTORE PUSH1 0x11 PUSH1 0x4 MSTORE PUSH1 0x24 PUSH0 REVERT JUMPDEST PUSH0 PUSH2 0x6FC DUP3 PUSH2 0x46E JUMP JUMPDEST SWAP2 POP PUSH2 0x707 DUP4 PUSH2 0x46E JUMP JUMPDEST SWAP3 POP DUP3 DUP3 ADD SWAP1 POP DUP1 DUP3 GT ISZERO PUSH2 0x71F JUMPI PUSH2 0x71E PUSH2 0x6C5 JUMP JUMPDEST JUMPDEST SWAP3 SWAP2 POP POP JUMP JUMPDEST PUSH0 PUSH2 0x72F DUP3 PUSH2 0x46E JUMP JUMPDEST SWAP2 POP PUSH32 0xFFFFFFFFFFFFFFFFFFFFFFFFFFFFFFFFFFFFFFFFFFFFFFFFFFFFFFFFFFFFFFFF DUP3 SUB PUSH2 0x761 JUMPI PUSH2 0x760 PUSH2 0x6C5 JUMP JUMPDEST JUMPDEST PUSH1 0x1 DUP3 ADD SWAP1 POP SWAP2 SWAP1 POP JUMP JUMPDEST PUSH32 0x4E487B7100000000000000000000000000000000000000000000000000000000 PUSH0 MSTORE PUSH1 0x12 PUSH1 0x4 MSTORE PUSH1 0x24 PUSH0 REVERT JUMPDEST PUSH0 PUSH2 0x7A3 DUP3 PUSH2 0x46E JUMP JUMPDEST SWAP2 POP PUSH2 0x7AE DUP4 PUSH2 0x46E JUMP JUMPDEST SWAP3 POP DUP3 PUSH2 0x7BE JUMPI PUSH2 0x7BD PUSH2 0x76C JUMP JUMPDEST JUMPDEST DUP3 DUP3 DIV SWAP1 POP SWAP3 SWAP2 POP POP JUMP JUMPDEST PUSH32 0x4E487B7100000000000000000000000000000000000000000000000000000000 PUSH0 MSTORE PUSH1 0x41 PUSH1 0x4 MSTORE PUSH1 0x24 PUSH0 REVERT JUMPDEST PUSH0 PUSH2 0x800 DUP3 PUSH2 0x46E JUMP JUMPDEST SWAP2 POP PUSH2 0x80B DUP4 PUSH2 0x46E JUMP JUMPDEST SWAP3 POP DUP3 PUSH2 0x81B JUMPI PUSH2 0x81A PUSH2 0x76C JUMP JUMPDEST JUMPDEST DUP3 DUP3 MOD SWAP1 POP SWAP3 SWAP2 POP POP JUMP JUMPDEST PUSH0 PUSH2 0x830 DUP3 PUSH2 0x46E JUMP JUMPDEST SWAP2 POP PUSH0 DUP3 SUB PUSH2 0x842 JUMPI PUSH2 0x841 PUSH2 0x6C5 JUMP JUMPDEST JUMPDEST PUSH1 0x1 DUP3 SUB SWAP1 POP SWAP2 SWAP1 POP JUMP JUMPDEST PUSH32 0x4E487B7100000000000000000000000000000000000000000000000000000000 PUSH0 MSTORE PUSH1 0x32 PUSH1 0x4 MSTORE PUSH1 0x24 PUSH0 REVERT INVALID LOG2 PUSH5 0x6970667358 0x22 SLT KECCAK256 0xB6 0xE8 ORIGIN 0xB0 PUSH3 0x5F5D76 0x22 EXTCODESIZE SWAP6 SELFDESTRUCT DUP3 SLOAD LOG1 PUSH25 0x198184DFD759DF59B46848B4C0935F3364736F6C634300081E STOP CALLER "
				},
				"gasEstimates": {
					"creation": {
						"codeDepositCost": "444800",
						"executionCost": "478",
						"totalCost": "445278"
					},
					"external": {
						"checkHistory()": "infinite",
						"interactions(address)": "2779",
						"welcome()": "infinite"
					},
					"internal": {
						"uintToString(uint256)": "infinite"
					}
				},
				"methodIdentifiers": {
					"checkHistory()": "79ab8f1f",
					"interactions(address)": "08a6f252",
					"welcome()": "b627cf3b"
				}
			},
			"storageLayout": {
				"storage": [
					{
						"astId": 5,
						"contract": "monandcommunity.sol:WelcomeCommunity",
						"label": "interactions",
						"offset": 0,
						"slot": "0",
						"type": "t_mapping(t_address,t_uint256)"
					}
				],
				"types": {
					"t_address": {
						"encoding": "inplace",
						"label": "address",
						"numberOfBytes": "20"
					},
					"t_mapping(t_address,t_uint256)": {
						"encoding": "mapping",
						"key": "t_address",
						"label": "mapping(address => uint256)",
						"numberOfBytes": "32",
						"value": "t_uint256"
					},
					"t_uint256": {
						"encoding": "inplace",
						"label": "uint256",
						"numberOfBytes": "32"
					}
				}
			},
			"userdoc": {
				"kind": "user",
				"methods": {
					"checkHistory()": {
						"notice": "Checks interaction history for the caller"
					}
				},
				"version": 1
			}
		}
	}
}